:020000040800F2
:10000000B0460020E9020008CD170008931600084A
:10001000C9170008430500088B1E000800000000F7
:10002000000000000000000000000000290200089D
:10003000470500080000000085020008D5170008E9
:100040000303000803030008030300080303000878
:100050000303000803030008030300080303000868
:100060000303000803030008030300080303000858
:100070000303000803030008030300080303000848
:100080000303000803030008030300080303000838
:100090000303000803030008030300080303000828
:1000A0000303000803030008030300080303000818
:1000B0000303000803030008030300080303000808
:1000C00003030008030300080303000803030008F8
:1000D00003030008BD190008030300080303000818
:1000E00003030008030300080303000803030008D8
:1000F00003030008030300080303000803030008C8
:1001000003030008030300080303000803030008B7
:100110000303000803030008D518000803030008C0
:100120000303000803030008030300080303000897
:100130000303000803030008030300080303000887
:100140000303000803030008030300080303000877
:100150000303000803030008030300080303000867
:100160000303000803030008030300080303000857
:100170000303000803030008030300080000000055
:10018000030300080303000800F002F800F03CF845
:100190000AA090E8000C82448344AAF10107DA45E2
:1001A00001D100F031F8AFF2090EBAE80F0013F0F8
:1001B000010F18BFFB1A43F001031847C82C0000B9
:1001C000E82C0000103A24BF78C878C1FAD852074A
:1001D00024BF30C830C144BF04680C6070470000C1
:1001E0000023002400250026103A28BF78C1FBD840
:1001F000520728BF30C148BF0B6070471FB502F0DF
:1002000007FE1FBD10B510BD00F061F91146FFF7E4
:10021000F5FF01F059FE00F07FF903B4FFF7F2FF9C
:1002200003BC00F087F900002C4B19680868B0E89F
:10023000F04F80F30988BFF36F8F4FF0000080F319
:10024000118870470000000008480068006880F3CB
:1002500008884FF0000080F3148862B661B6BFF3DF
:100260004F8FBFF36F8F00DF00BF00BF08ED00E0CE
:10027000DFF80C00016841F470010160704700BFB5
:1002800088ED00E0EFF30980BFF36F8F134B1A681E
:100290001EF0100F08BF20ED108A20E9F04F10600B
:1002A00009B44FF0500080F31188BFF34F8FBFF3B4
:1002B0006F8F02F0FDFA4FF0000080F3118809BC47
:1002C00019680868B0E8F04F1EF0100F08BFB0ECD6
:1002D000108A80F30988BFF36F8F704718000020E1
:1002E000EFF3058070470000094880470948004740
:1002F000FEE7FEE7FEE7FEE7FEE7FEE7FEE7FEE7D6
:10030000FEE7FEE704480549054A064B7047000032
:10031000C118000889010008B0400020B046002044
:10032000B0420020B042002053EA020C00F0698085
:100330002DE9F04B4FF00006002B1FBFB3FA83F5F9
:1003400003FA05F424FA05F65E4012BF1643B2FA2A
:1003500082F502FA05F4C5F120051EBF22FA05FC5C
:1003600044EA0C04203556EA044C4FEA144418BF02
:10037000641C4FF000084FF00009904271EB030C31
:1003800039D3002919BFB1FA81F701FA07F6B0FA9B
:1003900080F700FA07F6C7F120071EBF20FA07FC16
:1003A00046EA0C062037B6FBF4FCA7EB0507103F26
:1003B00007F01F0BCBF120060CFA0BFB2CFA06F60C
:1003C00044BFB3460026202FA4BF5E464FF0000B6B
:1003D0005BEA060C08BF4FF0010B19EB0B09ABFBF6
:1003E000027C48EB0608C01B06FB02CC0BFB03CCCF
:1003F00071EB0C01C1E70B46024641464846BDE899
:10040000F08B13B54FF000004FF00001AFF3008008
:10041000BDE81C40704710B5203AC0F00B80B1E831
:100420001850203AA0E81850B1E81850A0E8185029
:10043000BFF4F5AF5FEA027C24BFB1E81850A0E832
:10044000185044BF18C918C0BDE810405FEA827C4C
:1004500024BF51F8043B40F8043B08BF7047D20763
:1004600028BF31F8023B48BF11F8012B28BF20F804
:10047000023B48BF00F8012B70474FF0000200B567
:10048000134694469646203922BFA0E80C50A0E8B7
:100490000C50B1F12001BFF4F7AF090728BFA0E865
:1004A0000C5048BF0CC05DF804EB890028BF40F831
:1004B000042B08BF704748BF20F8022B11F0804F73
:1004C00018BF00F8012B704770477047704775469A
:1004D00000F02CF8AE4605006946534620F00700B0
:1004E000854618B020B5FFF70DFFBDE820404FF05E
:1004F00000064FF000074FF000084FF0000B21F00E
:100500000701AC46ACE8C009ACE8C009ACE8C009DA
:10051000ACE8C0098D46704710B50446AFF30080C3
:100520002046BDE81040FFF778BE00000048704745
:100530005040002001491820ABBEFEE72600020013
:10054000704700BFFEE7704772B600BFFEE7014686
:1005500091F83500022803D08020486501207047BB
:10056000052081F835000868006820F001000A685D
:1005700010600020F3E7000070B5044600F018F9A1
:1005800006462546681C10B104480078054400BFA3
:1005900000F00EF9801BA842FAD370BD10000020B5
:1005A000F8B502460B460025002400200021D5E0C6
:1005B000012606FA01F51E6806EA0504AC4274D16C
:1005C0001E7906F00306012E04D01E7906F00306FC
:1005D000022E13D190684F000326BE40B0434F0057
:1005E000DE68BE4030439060506801268E40B043C4
:1005F0001E79C6F300168E40304350601E7906F017
:100600000306032E09D0D0684F000326BE40B04336
:100610004F009E68BE403043D0601E7906F003064E
:10062000022E13D1CF0802F1200656F827004E07FC
:10063000F70E0F26BE40B0434F07FF0E1E69BE40A7
:100640003043CF0802F1200646F8270010684F001B
:100650000326BE40B0431E7906F003064F00BE409D
:10066000304310605E6806F44036002E75D000BF3F
:10067000002600963B4E366846F48046394F3E6071
:100680003E46366806F48046009600BF00BF364EF0
:100690008F0856F827008E07370F0F26BE40B0434D
:1006A000324EB24202D1002624E056E0304EB24231
:1006B00001D101261EE02F4EB24201D1022619E0DF
:1006C0002D4EB24201D1032614E02C4EB24201D18C
:1006D00004260FE02A4EB24201D105260AE0294E37
:1006E000B24201D1062605E0274EB24201D10726CB
:1006F00000E008268F073F0FBE4030431A4E8F0898
:1007000046F82700214E3068A0435E6806F4803624
:1007100006B120431D4E3060361D3068A0435E6830
:1007200006F4003606B12043184E361D3060361DE3
:100730003068A0435E6806F4801606B12043134E6D
:1007400008363060361D3068A0435E6806F4001637
:1007500006B120430D4E0C363060491C1029FFF4C1
:1007600027AFF8BD4438024008380140000002407D
:100770000004024000080240000C02400010024049
:100780000014024000180240001C0240003C0140DE
:1007900010B5426921EA020302EA010443EA044374
:1007A000836110BD0AB1816101E00B048361704770
:1007B00001480068704700000800002003480068F6
:1007C000034909780844014908607047080000207F
:1007D0001000002010B50D48006840F400700B496F
:1007E00008600846006840F48060086008460068B9
:1007F00040F480700860032000F0C8F80F2000F07B
:1008000007F800F04BF8002010BD0000003C02404B
:1008100070B588B004460025002600222146362007
:1008200000F076F8362000F063F800BF0020019059
:100830001648006840F01000144908600846006837
:1008400000F01000019000BF00BF02A903A800F053
:100850007BF900F0A1F945000D48B5FBF0F0461E0C
:100860000C480D49086040F2E7310B48C160466012
:1008700000210161816000F067FC20B9064800F0AA
:1008800097FC08B070BD0120FBE700004038024033
:1008900040420F00001000401803002008B500BFC0
:1008A000002000901148006840F480400F49086023
:1008B0000846006800F48040009000BF00BF00BF01
:1008C00000200090081F006840F08050091F086059
:1008D0000846006800F08050009000BF00BF002272
:1008E0000F21901E00F014F808BD000044380240AB
:1008F00001460846002809DB00F01F0301229A4048
:1009000043099B0003F1E023C3F8002100BF7047B7
:100910002DE9F05F80460D461646002701F0B8FA33
:10092000074639462A46334601F00700C0F1070A58
:10093000BAF1040F02D94FF0040A01E0C0F1070A2E
:10094000D14600F1040ABAF1070F02D24FF0000AB3
:1009500001E0A0F1030AD4464FF0010A0AFA09FAAD
:10096000AAF1010A0AEA020A0AFA0CFA4FF0010B8C
:100970000BFA0CFBABF1010B0BEA030B4AEA0B047D
:100980002146404601F08CFABDE8F09F00BF00F020
:100990000702064B19684FF6FF031940044B0B433F
:1009A00043EA0221014B196000BF70470CED00E0E3
:1009B0000000FA057047000070B504460D460CB9FA
:1009C000012070BD5848006800F00700A84209D215
:1009D00055490D700846006800F00700A84201D094
:1009E0000120EEE7207800F0020002281DD12078D7
:1009F00000F00400042805D14C48006840F4E050A1
:100A00004A490860207800F00800082805D14748C6
:100A1000006840F46040454908604448006820F0A0
:100A2000F000A168084341490860207800F0010007
:100A3000A8B36068012807D13C4808380068C0F3B3
:100A40004040B8B90120BCE76068022802D0606865
:100A5000032807D1354808380068C0F3406048B91A
:100A60000120AEE7314808380068C0F3400008B9FB
:100A70000120A6E72D48006820F0030061680843C4
:100A80002A490860FFF794FE064609E0FFF790FE4A
:100A9000801B41F28831884202D9032091E707E0A8
:100AA0002248006800F00C006168B0EB810FEDD1C6
:100AB0001D48006800F00700A84209D91A490D70C6
:100AC0000846006800F00700A84201D0012078E73E
:100AD000207800F00400042807D11448006820F4AE
:100AE000E050E168084311490860207800F00800F0
:100AF000082808D10D48006820F46040216940EAC8
:100B0000C1000A49086000F067F808490968C1F3A4
:100B10000311074A515CC84006490860064800684E
:100B2000FFF776FE00204CE7003C02400838024008
:100B3000542E0008140000200C0000200120014960
:100B4000C8647047000047420F2202600D4A1268D5
:100B500002F0030242600B4A126802F0F002826067
:100B6000084A126802F4E052C260064A126802F4AF
:100B70006042D2080261044A126802F007020A6069
:100B80007047000008380240003C024001480068FD
:100B9000704700001400002000B5FFF7F7FF04497C
:100BA0000968C1F38221034A515CC84000BD0000BE
:100BB00008380240642E000800B5FFF7E7FF04493B
:100BC0000968C1F34231034A515CC84000BD0000CE
:100BD00008380240642E00082DE9F0470024002563
:100BE0000026A1462548006800F00C0020B104282A
:100BF00005D008283AD105E0DFF8849039E0DFF825
:100C0000849036E01D48001F006800F03F041B4838
:100C1000001F006800F4800078B11A481749091FC6
:100C20000968C1F38811A0FB017001462246002328
:100C30003846FFF779FB05460EE011480F49091FBA
:100C40000968C1F38811A0FB017001462246002308
:100C50003846FFF769FB05460848001F0068C0F3E7
:100C60000140401C4600B5FBF6F902E0DFF81090A9
:100C700000BF00BF4846BDE8F087000008380240CA
:100C80000024F40000127A0010B50648006800F055
:100C90008000802805D1FFF78DFE80200149891C46
:100CA000087010BD0C380240F8B504460CB901209C
:100CB000F8BD207800F00100002874D0F9480068E1
:100CC00000F00C0004280DD0F648006800F00C007D
:100CD000082813D1F348001F006800F48000B0F525
:100CE000800F0BD1EF4808380068C0F3404000285F
:100CF00059D06068002856D10120D9E700BF60684C
:100D0000B0F5803F08D1E7480838006840F48030EB
:100D1000E449083908601EE06068B0F5A02F0DD1E5
:100D2000E0480838006840F48020DE49083908604F
:100D30000846006840F4803008600CE0D948083864
:100D4000006820F48030D7490839086008460068F8
:100D500020F48020086000BF606890B1FFF728FD94
:100D6000054606E0FFF724FD401B642801D9032057
:100D70009EE7CC4808380068C0F340400028F1D016
:100D800011E0FFF715FD054606E0FFF711FD401BDA
:100D9000642801D903208BE7C24808380068C0F3F3
:100DA00040400028F1D1207800F0020002285FD1F5
:100DB000BC48006800F00C0058B1BA48006800F068
:100DC0000C0008281CD1B748001F006800F4800000
:100DD000B0B9B44808380068C0F3400020B1E068FA
:100DE000012801D0012063E7AE480838006820F0F0
:100DF000F800216940EAC100AA490839086037E0D3
:100E0000E06800B30120A8490860FFF7D1FC05465F
:100E100006E0FFF7CDFC401B022801D9032047E77D
:100E2000A04808380068C0F340000028F1D09D4871
:100E30000838006820F0F800216940EAC1009949AB
:100E40000839086014E0002097490860FFF7B0FCFB
:100E5000054606E0FFF7ACFC401B022801D9032041
:100E600026E7904808380068C0F340000028F1D118
:100E7000207800F0080008282CD16069A8B1012072
:100E80008A490860FFF794FC054606E0FFF790FCEE
:100E9000401B022801D903200AE782486C30006811
:100EA000C0F340000028F1D014E000207F49086022
:100EB000FFF77EFC054606E0FFF77AFC401B0228A0
:100EC00001D90320F4E677486C300068C0F3400095
:100ED0000028F1D1207800F00400042870D1002708
:100EE00070483830006800F0805090B900BF002092
:100EF00000906C483830006840F0805069493831C3
:100F000008600846006800F08050009000BF00BFF5
:100F100001276748006800F48070B0B96448006831
:100F200040F4807062490860FFF742FC054606E025
:100F3000FFF73EFC401B022801D90320B8E65C48BD
:100F4000006800F480700028F2D000BFA06801287B
:100F500008D154486830006840F0010051496831B8
:100F600008601DE0A06805280DD14E486830006873
:100F700040F004004B49683108600846006840F0C2
:100F8000010008600CE047486830006820F001006C
:100F90004449683108600846006820F00400086091
:100FA00000BFA068A8B1FFF703FC054609E0FFF702
:100FB000FFFB401B41F28831884202D9032077E6CB
:100FC00026E0384868300068C0F340000028EED0C2
:100FD00013E0FFF7EDFB054608E0FFF7E9FB401BD8
:100FE00041F28831884201D9032061E62D486830FA
:100FF0000068C0F340000028EFD1012F07D1294835
:101000003830006820F0805026493831086000BF31
:10101000A069002845D02348006800F00C0008288B
:101020005DD0A069022845D100201F490866FFF75E
:10103000BFFB054606E0FFF7BBFB401B022801D9BA
:10104000032035E6174808380068C0F340600028E0
:10105000F1D1D4E907010843616A40EA8111012214
:10106000A06AC2EB500041EA00412C20005D41EA39
:1010700000600C49091F086001200B490866FFF752
:1010800097FB054606E0FFF793FB401B022801D9BA
:1010900003200DE6034808380068C0F340600028CC
:1010A000F1D049E00838024000004742800E474234
:1010B00000700040002021490866FFF779FB0546D3
:1010C00006E0FFF775FB401B022801D90320EFE57E
:1010D0001B480068C0F340600028F2D12CE0A069F2
:1010E000012800D1E4E51648001D0668A069012822
:1010F00020D006F48001E06981421BD106F03F0157
:10110000206A814216D147F6C0703040616AB0EB68
:10111000811F0FD106F440310122A06AC2EB5000BA
:10112000B1EB004F06D106F070612C20005DB1EBF1
:10113000006F01D00120BBE50020B9E50000474267
:10114000003802407047704710B504460CB90120C2
:1011500010BD94F83D0028B9002084F83C002046DA
:1011600000F025F8022084F83D00211D206800F0E1
:10117000B9FB012084F8460000BF84F83E0001213D
:101180003F200155402001554120015500BF00BFBF
:10119000012084F842004320015544200155452098
:1011A000015500BF012084F83D000020D0E77047C2
:1011B000014691F83D00012801D00120704702202E
:1011C00081F83D000868C06840F001000B68D860F5
:1011D0001A4B086898421BD00868B0F1804F17D0AE
:1011E000174B0868984213D0164B086898420FD0E6
:1011F000154B086898420BD0144B0868984207D0EA
:10120000134B0868984203D0124B086898420CD1DF
:101210000868806800F00702062A0CD00868006899
:1012200040F001000B68186005E00868006840F0B5
:1012300001000B6818600020C0E7000000000140BA
:101240000004004000080040000C00400004014081
:101250000040014000180040704710B50446206867
:101260000069C0F34000D8B12068C068C0F34000F6
:10127000B0B16FF00200216808610120207720687A
:10128000806900F0030018B12046FFF7E5FF05E094
:10129000204600F0ADF8204600F0ABF800202077A3
:1012A00020680069C0F38000D8B12068C068C0F32E
:1012B0008000B0B16FF0040021680861022020773F
:1012C0002068806900F4407018B12046FFF7C4FF21
:1012D00005E0204600F08CF8204600F08AF8002057
:1012E000207720680069C0F3C000D8B12068C068CA
:1012F000C0F3C000B0B16FF008002168086104209D
:1013000020772068C06900F0030018B12046FFF77D
:10131000A3FF05E0204600F06BF8204600F069F8D6
:101320000020207720680069C0F30010D8B1206841
:10133000C068C0F30010B0B16FF010002168086100
:10134000082020772068C06900F4407018B120465A
:10135000FFF782FF05E0204600F04AF8204600F043
:1013600048F8002020772068006900F0010058B19B
:101370002068C06800F0010030B16FF00100216802
:101380000861204600F036F820680069C0F3C010FC
:1013900058B12068C068C0F3C01030B16FF0800051
:1013A000216808612046FFF7CDFE20680069C0F380
:1013B000801058B12068C068C0F3801030B16FF061
:1013C000400021680861204600F020F8206800698C
:1013D000C0F3401058B12068C068C0F3401030B16D
:1013E0006FF02000216808612046FFF7ACFE10BDB9
:1013F0007047704710B5044603492068884201D100
:10140000FFF7DCF910BD0000001000407047704786
:101410002DE9F0470446206805682068C668206802
:1014200047694FF00008C14605F00F08B8F1000FFA
:1014300012D105F0200078B106F0200060B194F8D8
:101440003D00222803D1204600F0F0FA02E02046B9
:1014500000F06AFCBDE8F087B8F1000F7BD007F020
:10146000010018B906F49070002874D005F001004E
:1014700030B106F4807018B1206C40F00100206497
:1014800005F0040030B107F0010018B1206C40F005
:101490000200206405F0020030B107F0010018B12D
:1014A000206C40F00400206405F0080048B106F00C
:1014B000200010B907F0010018B1206C40F00800BE
:1014C0002064206C002845D005F0200068B106F0AB
:1014D000200050B194F83D00222803D1204600F0AE
:1014E000A5FA02E0204600F01FFC20684069C0F326
:1014F0008019206C00F0080010B9B9F1000F24D059
:10150000204600F06DFA2068406900F04000402855
:1015100017D12068406920F0400021684861A06B25
:1015200050B11C48A16B0865A06BFFF710F888B19B
:10153000A06B016D88470DE02046FFF768FF09E0CA
:1015400009E02046FFF763FF04E02046FFF75FFF56
:10155000002020647EE705F0800070B106F0800076
:1015600058B194F83D00122803D1204600F05DFCEC
:1015700002E0204600F0D8FB6CE705F0400030B1F7
:1015800006F0400018B1204600F03AFA62E700BFCA
:1015900060E70000CD19000810B504460CB9012021
:1015A00010BD94F83D0028B9002084F83C00204686
:1015B00000F020F8022084F83D00204600F08AFA6E
:1015C0002068006920F48040216808612068406933
:1015D00020F02A00216848612068C06840F400506B
:1015E0002168C86000202064012084F83D000020AC
:1015F000D6E7000010B586B00446142101A8FEF716
:101600003CFF1F492068884238D100BF002000906D
:101610001C48006840F010001A490860084600683D
:1016200000F01000009000BF00BF00BF002000903D
:1016300014481438006840F0010012491439086059
:101640000846006800F00100009000BF00BF4FF4A2
:10165000E06001900220029000200390032004909B
:101660000720059001A90848FEF79AFF00220521EE
:101670002520FFF74DF92520FFF73AF906B010BDF8
:10168000001001404438024000000240704770479B
:10169000704700BFFEE7000000BF4FF4007105482F
:1016A000FFF776F84FF4FA70FEF766FF0A2001F0B4
:1016B00071F8F2E70014024000BF4FF48061054862
:1016C000FFF766F84FF47A70FEF756FF0A2001F034
:1016D00061F8F2E70014024000B587B0142102A8B7
:1016E000FEF7CBFE00BF002001902748006840F0C5
:1016F0000400254908600846006800F004000190D5
:1017000000BF00BF00BF002001900846006840F005
:10171000200008600846006800F02000019000BF2B
:1017200000BF00BF002001900846006840F0800024
:1017300008600846006800F08000019000BF00BF0C
:1017400000BF002001900846006840F001000860DA
:101750000846006800F00100019000BF00BF0022B1
:101760004FF4C0610948FFF71DF84FF4C0600290C4
:101770000120039000200490059002A90348FEF781
:101780000FFF07B000BD00003038024000140240D7
:1017900010B50B480B4908604FF4E1304860002158
:1017A00008488160C16001610C21416100218161B3
:1017B000C1610162FFF7F0FE08B1FEF7C5FE10BD82
:1017C000001001408000002000BFFEE7FFF75CFA38
:1017D00000BFFEE710B500BF502080F31188BFF3B3
:1017E0004F8FBFF36F8F00BF01F0ECF918B14FF0CE
:1017F00080500449086000BF002080F3118800BFBA
:1018000010BD000004ED00E000B593B0302107A842
:10181000FEF733FE142102A8FEF72FFE00BF0020C2
:1018200001902548006840F0805023490860084630
:10183000006800F08050019000BF00BF00BF002092
:1018400001901E48006840F480401C49086008462A
:10185000006800F48040019000BF00BF01200790A5
:101860000004089002200D9041050E9108210F916F
:101870004FF4A8711091022111910421129107A82F
:10188000FFF712FA08B1FEF75FFE0F200290022068
:101890000390002004904FF4A05005904FF4805026
:1018A0000690052102A8FFF787F808B1FEF74CFE65
:1018B000FFF744F913B000BD40380240007000400B
:1018C0000348006840F47000014908607047000058
:1018D00088ED00E010B50248FFF7BFFC10BD000026
:1018E0001803002010B50268294B98420ED0B0F1C1
:1018F000804F0BD0274B984208D0274B984205D0F9
:10190000264B984202D0264B984203D122F0700217
:101910004B681A431E4B984220D0B0F1804F1DD027
:101920001C4B98421AD01C4B984217D01B4B984224
:1019300014D01B4B984211D01A4B98420ED01A4B20
:1019400098420BD0194B984208D0194B984205D0B9
:10195000184B984202D0184B984203D122F440729F
:10196000CB681A4322F080034C6943EA0402026008
:101970008B68C3620B688362054B984202D0084BA8
:10198000984201D10B6903630123436110BD00003C
:10199000000001400004004000080040000C00402E
:1019A0000004014000400140004401400048014063
:1019B00000180040001C00400020004010B5024804
:1019C000FFF726FD10BD00008000002070B5054621
:1019D000AC6B0020608660852046FFF718FD70BD67
:1019E0000168C96821F490710268D1600168496991
:1019F00021F0010102685161012180F83D1070471A
:101A000010B504462068C06820F040002168C86016
:101A10002068406920F0010021684861012084F8B5
:101A20003D002046FFF733FE002010BD70B5044690
:101A300094F83D0022284AD1A068B0F5805F0CD10F
:101A4000206950B90025E66A20684068C0F30800A4
:101A50003080E06A801CE06215E0E56A0026A0683C
:101A6000B0F5805F03D0A06828B9206918B9206854
:101A70004068287004E02068406800F07F0028700B
:101A8000E06A401CE062608E401E6086608EC8B9CD
:101A90002068C06820F020002168C8602068C06805
:101AA00020F480702168C8602068406920F001003F
:101AB00021684861012084F83D002046FFF7E6FDDB
:101AC000002070BDFF20216848600020F9E7022057
:101AD000F7E700002DE9FC5F044600262068C06897
:101AE00020F00C002168C8602068066926F47C5646
:101AF000A06940F40060E1690843216A0843E16895
:101B000008430643206806612068C66849F20C60F5
:101B100086432169A06808436169084340F4004096
:101B200006432068C6602068406920F44070216840
:101B300048617B492068884203D07A4920688842FE
:101B400074D1FFF739F8054602206168A0FB0191C6
:101B50001920A5FB007080464A460B463846414690
:101B6000FEF7E2FB6421B0FBF1F04FEA001902201E
:101B70006168A0FB017003461920A5FB00A0014687
:101B80003A465046FEF7D0FB824602206168A0FB31
:101B9000017003461920A5FB00B001463A4658469D
:101BA000FEF7C2FB6421B0FBF1F000EBC00101EBDA
:101BB0000010AAEB8000322101EBC0006421B0FBD1
:101BC000F1F000F0F80009EB400902206168A0FB89
:101BD00001711920A5FB00A083463A460B465046EA
:101BE0005946FEF7A1FB824602206168A0FB017105
:101BF0000B461920A5FB00B13A465846FEF794FB68
:101C00006421B0FBF1F000EBC00101EB0010AAEB86
:101C10008000322101EBC0006421B0FBF1F000F044
:101C2000070048442168886077E0FFE7FEF7B4FFCB
:101C3000054602206168A0FB01911920A5FB0070F8
:101C400080464A460B4638464146FEF76DFB642106
:101C5000B0FBF1F04FEA001902206168A0FB01A07F
:101C600003461920A5FB0070014652463846FEF790
:101C70005BFB824602206168A0FB01711920A5FB75
:101C800000B084463A460B4658466146FEF74CFB88
:101C90006421B0FBF1F000EBC00101EB0010AAEBF6
:101CA0008000322101EBC0006421B0FBF1F000F0B4
:101CB000F80009EB400B02206168A0FB019119209C
:101CC000A5FB007080464A460B4638464146FEF763
:101CD0002BFB814602206168A0FB01710B46192095
:101CE000A5FB00103A46CDE9001008460199FEF721
:101CF0001BFB6421B0FBF1F000EBC00101EB001015
:101D0000A9EB8000322101EBC0006421B0FBF1F0AF
:101D100000F00700584421688860BDE8FC9F00007F
:101D2000001001400014014070B5044694F83D00D5
:101D3000322878D1608D30B320680068C0F3C010BD
:101D400008B3A068B0F5805F0CD1206950B90025B8
:101D5000666A3088C0F3080021684860606A801CA9
:101D6000606205E0616A481C60620878216848602A
:101D7000608D401E6085608D28B92068C06820F0A5
:101D800080002168C860608E70B320680068C0F36E
:101D9000401048B3A068B0F5805F0CD1206950B9FD
:101DA0000025E66A20684068C0F308003080E06AD9
:101DB000801CE06215E0E56A0026A068B0F5805F4F
:101DC00003D0A06828B9206918B920684068287035
:101DD00004E02068406800F07F002870E06A401C42
:101DE000E062608E401E6086608ED0B92068C06858
:101DF00020F020002168C8602068C06820F480704E
:101E00002168C8602068406920F0010021684861AD
:101E1000012084F83D002046FFF73AFC002070BD09
:101E200001E00020FBE70220F9E7014691F83D00C0
:101E3000122828D18868B0F5805F0BD1086948B9AD
:101E40004A6A1088C0F308000B685860486A801C12
:101E5000486205E04B6A581C486218780B68586065
:101E6000488D401E80B2488558B90868C06820F087
:101E700080000B68D8600868C06840F040000B68BC
:101E8000D860002070470220FCE700BFFEE700009A
:101E900002480068C0F30220704700000CED00E02B
:101EA00010B5002804DB0A07130E054A135406E098
:101EB0000A07140E034A00F00F031B1FD45410BD71
:101EC00000E400E018ED00E08EB0FEF783FCFFF7C1
:101ED0009BFCFFF701FCFFF75BFC1C220C4907A8E9
:101EE000FEF799FA002107A800F024F809490860D4
:101EF0001C2207491C316846FEF78DFA002168460E
:101F000000F018F80449086000F00FF800BFFEE781
:101F10001C2E0008000000200400002001460020C4
:101F2000842901D0CA1C1044704710B500F060FC31
:101F3000002010BD7FB504460D46606998B1A069C8
:101F400088B1B4F90800FFF7E9FF0646D4E90510A7
:101F5000CDE9006102902B462269D4E9001000F01F
:101F6000D3FD039013E0B4F90800FFF7D7FF06464E
:101F700003A8CDE90060238A9AB22B46D4E9001069
:101F800000F090FD012802D0002004B070BD03983D
:101F9000FBE700002DE9F04105460E461C480768A6
:101FA0001C480068001D00F0F1FA50B9194800689B
:101FB00090F82C1001208840174909688143164881
:101FC0000160681C38B936B112480168091D134810
:101FD00000F026FB1AE07C190E4800684460BC4201
:101FE00007D20C480168091D0D48006800F0FEFA90
:101FF0000CE008480168091D0A48006800F0F6FA7C
:1020000009480068844201D207480460BDE8F081B5
:102010002C00002018000020300000203C0400208C
:10202000200000201C0000204800002010B50446BD
:1020300000F002FB23480068401C22490860224847
:10204000006840B9204804600846006801280DD1A6
:1020500000F03EF90AE01D48006838B91A480068E7
:10206000C06AE16A884201D81748046018480068CD
:10207000401C1749086094F82C100120884015492D
:102080000968084313490860E16A01EB8101124ABB
:1020900002EB8100211D00F0C3FA00F0F7FA0B48B3
:1020A000006868B108480068C06AE16A884207D2DF
:1020B0004FF0805009490860BFF34F8FBFF36F8F17
:1020C00010BD00002800002018000020340000206F
:1020D00044000020300000206003002004ED00E0F8
:1020E00010B516E000F0A8FA0C48C068C468201DBE
:1020F00000F04CFA0A480068401E09490860094887
:102100000068401E0749086000F0C0FA204600F051
:102110000BF8044800680028E4D110BD2804002012
:10212000280000202400002010B5044694F8510037
:1021300030B9206B00F0C8FA204600F0C5FA1AE06A
:1021400094F85100012803D1204600F0BDFA12E0B6
:1021500094F85100022801D1012000E0002050B97C
:1021600000BF502080F31188BFF34F8FBFF36F8FF4
:1021700000BF00BFFEE710BD30B54FF470531748E5
:1021800000F007042CB1C01D20F00700134C041B05
:102190001B1B0246124C22600024114D6C60D018AB
:1021A000083820F007000F4C206000240D4D2D68EA
:1021B0006C600C4D2D682C601146441A4C60094C23
:1021C00024680C60084D4C682C60084D4C682C60ED
:1021D0004FF00044064D2C6030BD0000500400203C
:1021E000540000205C0000206400002060000020FB
:1021F0007000002000BFFFF773FF06480068012849
:10220000F9D94FF0805004490860BFF34F8FBFF3F6
:102210006F8FF0E76003002004ED00E02DE9FF5F21
:1022200081460E469246DDE90E7B109CAAF1010024
:10223000216B01EB800828F0070808F0070008B9B7
:10224000012000E0002050B900BF502080F3118829
:10225000BFF34F8FBFF36F8F00BF00BFFEE786B1A4
:10226000002507E0715D04F134004155705D00B94F
:1022700002E06D1C102DF5D300BF00214320015555
:1022800002E0002084F83400072F00D30627E7621D
:1022900067640020A064201D00F0A5F904F1180077
:1022A00000F0A1F92461C7F10700A0616462002079
:1022B000E06484F8500049464046039A00F050F923
:1022C0002060BBF1000F01D0CBF80040BDE8FF9FBC
:1022D00010B5002407E004EB84010F4A02EB8100F3
:1022E00000F074F9641C072CF5D30C4800F06EF96B
:1022F0000B4800F06BF90B4800F068F90A4800F051
:1023000065F90A4800F062F9044809490860044880
:102310000849086010BD000060030020EC030020A5
:102320000004002014040020280400203C040020A5
:102330001C0000202000002010B50146164800E0D7
:10234000006803688B42FBD30246436813448B4208
:1023500004D143684C682344436001460A464B68F5
:1023600013440468A34211D10C4C03682468A342AF
:1023700008D04B680468646823444B6003681B689A
:102380000B6005E0054B1B680B6001E003680B6008
:10239000884200D0016010BD540000205C00002085
:1023A0000A490968096809B9012100E0002121B141
:1023B0004FF0FF31064A116006E004490968C96818
:1023C000C868034A41681160704700001C00002083
:1023D000480000200E480068401C08B9012000E0B9
:1023E000002050B900BF502080F31188BFF34F8FF9
:1023F000BFF36F8F00BF00BFFEE700BF502080F328
:102400001188BFF34F8FBFF36F8F00BF00BFFEE790
:10241000740000202DE9F04104464FF0000800F060
:102420003FFA4948006808B9FFF7A6FE4748006828
:102430002040002870D1D4B1083404F00700B0B1B6
:1024400004F00700C0F10800044404F0070008B9D4
:10245000012000E0002050B900BF502080F3118817
:10246000BFF34F8FBFF36F8F00BF00BFFEE7002C9D
:1024700052D03748006884424ED8364E3046056800
:1024800001E02E462D686868A04202D22868002824
:10249000F7D12D48006885423ED0306800F1080829
:1024A000286830606868001B102819D92F1907F0B8
:1024B000070008B9012000E0002050B900BF5020FB
:1024C00080F31188BFF34F8FBFF36F8F00BF00BF42
:1024D000FEE76868001B78606C603846FFF72CFFE9
:1024E0001B4968680968081A1949086008460068A5
:1024F00019490968884203D21548006816490860DE
:102500001249686809680843686000202860134819
:102510000068401C1149086000F0F8FB08F0070053
:1025200008B9012000E0002050B900BF502080F31E
:102530001188BFF34F8FBFF36F8F00BF00BFFEE75F
:102540004046BDE8F08100005C00002070000020E3
:10255000600000205400002064000020680000207B
:10256000001F4FF080730360001F21F00103036020
:10257000001F054B036014380260001F6FF0020358
:102580000360203870470000D523000801460A691F
:10259000D1E901309860D1E9010358605068884260
:1025A00001D188685060002008611068401E1060EA
:1025B00010687047034B0360034B0B60802313606C
:1025C00070470000C40000201801002000F108013D
:1025D00041604FF0FF31816000F10801C16001618D
:1025E00000210160704700210161704710B502466B
:1025F0000B685C1C0CB9106907E002F1080000E0F0
:102600004068446824689C42FAD944684C604C682D
:10261000A160886041600A611468641C146010BD88
:1026200042684A6093688B60936859609160086162
:1026300003685B1C0360704700BF502080F3118863
:10264000BFF34F8FBFF36F8F00BF0E480068401C71
:102650000C49086008460068012812D10A48006841
:10266000C0B208B9012000E0002050B900BF5020DE
:1026700080F31188BFF34F8FBFF36F8F00BF00BF90
:10268000FEE770477400002004ED00E00D4800688C
:1026900050B900BF502080F31188BFF34F8FBFF3B4
:1026A0006F8F00BF00BFFEE706480068401E054967
:1026B00008600846006820B9002080F3118800BF38
:1026C00000BF70477400002070B506463546002EE6
:1026D00044D0083D2C46224960680968084008B18A
:1026E000012000E0002050B900BF502080F3118885
:1026F000BFF34F8FBFF36F8F00BF00BFFEE72068AF
:1027000008B9012000E0002050B900BF502080F33C
:102710001188BFF34F8FBFF36F8F00BF00BFFEE77D
:102720000F49606809680840C0B12068B0B90C4919
:10273000606809688843606000F0B2F80949606821
:1027400009680844074908602046FFF7F5FD064878
:102750000068401C0449086000F0D8FA70BD000011
:1027600070000020600000206C00002000204FF06E
:10277000E02108618861064800684FF47A71B0FB77
:10278000F1F0401E4FF0E0214861072008617047DA
:102790001400002070B504460025D4B1124800682A
:1027A00008B9012000E0002050B900BF502080F39C
:1027B0001188BFF34F8FBFF36F8F00BF00BFFEE7DD
:1027C00000F06EF800212046FFF7E4FB00F09EFACF
:1027D00005463DB94FF0805004490860BFF34F8F64
:1027E000BFF36F8F70BD00005000002004ED00E0CB
:1027F00010B586B000200590049003AA04A905A88E
:10280000FFF7D8FE0022DDE904101346CDE90021D0
:1028100002901CA11D48039A00F076F91C4908603B
:102820000846006808B1012400E00024012C15D1FD
:1028300000BF502080F31188BFF34F8FBFF36F8F1D
:1028400000BF4FF0FF3013490860012012490860B3
:1028500000201249086000F071F810E0601C08B117
:10286000012000E0002050B900BF502080F3118803
:10287000BFF34F8FBFF36F8F00BF00BFFEE706B0FF
:1028800010BD000049444C4500000000F52100083F
:102890004C00002048000020340000202C000020C4
:1028A00002480068401C0149086070475000002041
:1028B0001D48006818B101201C49086032E0002062
:1028C0001A4908601A480068B0FA80F0C0F11F0188
:1028D00001EB8100174A52F8200008B1012000E006
:1028E000002050B900BF502080F31188BFF34F8FF4
:1028F000BFF36F8F00BF00BFFEE701EB81020D4BFE
:1029000003EB820042685268426000F108024368AB
:10291000934202D14268526842604268D268064BD4
:102920001A6000BF70470000500000203C000020EB
:102930003000002060030020180000201CB5524821
:1029400000685249884201D0012000E0002050B9BF
:1029500000BF502080F31188BFF34F8FBFF36F8FFC
:1029600000BF00BFFEE7484800684849491E88424A
:1029700001D0012000E0002050B900BF502080F3BA
:102980001188BFF34F8FBFF36F8F00BF00BFFEE70B
:102990003F49084600780190FF200A46107008461B
:1029A000007800909DF8000000F0F0009DF80020F5
:1029B000904201D1012000E0002050B900BF50201A
:1029C00080F31188BFF34F8FBFF36F8F00BF00BF3D
:1029D000FEE79DF8000000F050002E4A107007201E
:1029E0002D4A106009E02C480068401E2A4A1060F9
:1029F0009DF800004006000E00909DF8000000F0D9
:102A000080008028EFD024480068C0F10700042827
:102A100001D1012000E0002050B900BF502080F318
:102A20001188BFF34F8FBFF36F8F00BF00BFFEE76A
:102A3000194800680002184A10601046008800F427
:102A4000E0601060124A019810700F482030006852
:102A500040F470000C49203108600846006840F0DE
:102A600070400860FFF782FE00200C490860FDF707
:102A7000FFFB0B48006840F0404009490860FDF743
:102A8000E3FB00201CBD000000ED00E071C20F411F
:102A900000E400E0780000207C00002074000020AA
:102AA00034EF00E02DE9FF4F85B080468946174698
:102AB000DDE912ABB800FFF7ADFC064656B1542075
:102AC000FFF7A8FC04460CB1266304E03046FFF78C
:102AD000FBFD00E000248CB1002084F85100CDE91A
:102AE00000ABCDE902403A4649464046089BFFF715
:102AF00095FB2046FFF79AFA012501E04FF0FF35DC
:102B0000284609B0BDE8F08F2DE9F04F85B00746A3
:102B1000884691469A46DDE90EB6109C0EB101201A
:102B200000E0002050B900BF502080F31188BFF3AF
:102B30004F8FBFF36F8F00BF00BFFEE70CB10120C6
:102B400000E0002050B900BF502080F31188BFF38F
:102B50004F8FBFF36F8F00BF00BFFEE7542003907D
:102B60000398542801D1012000E0002050B900BF93
:102B7000502080F31188BFF34F8FBFF36F8F00BFDA
:102B800000BFFEE700BFB4B1AEB125462C462E63B0
:102B9000022085F85100002004A953464A46CDE999
:102BA00000B1CDE9025041463846FFF737FB2846D1
:102BB000FFF73CFA01E000200490049805B0BDE85E
:102BC000F08F00002DE9F0414FF000084448006804
:102BD00000287CD143480068451C4248056015BB6D
:102BE00041480068006808B9012000E0002050B9A1
:102BF00000BF502080F31188BFF34F8FBFF36F8F5A
:102C000000BF00BFFEE7384807683848006836490B
:102C100008603648076036480068401C3449086040
:102C2000FFF7BEFB00BF3348006885423CD300BFBE
:102C30002D480068006808B9012000E0002020B19C
:102C40004FF0FF302B4908602DE027480068C0682E
:102C5000C4686668B54202D22648066023E0201D9B
:102C6000FFF794FCA06A18B104F11800FFF78EFC7E
:102C700094F82C10012088401F49096808431E4918
:102C80000860E16A01EB81011C4A02EB8100211D11
:102C9000FFF7C6FC1A49E06A0968C96A8842C7D3C7
:102CA0004FF00108C4E700BF15480068C06A00EB98
:102CB0008000124951F82000012801D94FF0010885
:102CC0001048006808B14FF0010805E0FFE70E4822
:102CD0000068401C0C4908604046BDE8F0810000D7
:102CE000500000202C0000201C00002020000020AC
:102CF0004000002048000020300000206003002039
:102D0000180000203C0000203800002070B500248E
:102D100000263648006850B900BF502080F3118863
:102D2000BFF34F8FBFF36F8F00BF00BFFEE7FFF70A
:102D300083FC2E480068401E2C4908600846006845
:102D400000284FD12A48006800284BD024E02948A9
:102D5000C068C46804F11800FFF718FC201DFFF7D5
:102D600015FC94F82C100120884023490968084379
:102D700021490860E16A01EB8101204A02EB8100F0
:102D8000211DFFF74DFC1E49E06A0968C96A8842A7
:102D900002D301201B4908601648006808B90120C9
:102DA00000E000200028D2D00CB1FFF7F9FA164855
:102DB000056865B100BFFFF705FF10B1012011499B
:102DC00008606D1E002DF6D100200F4908600D48E7
:102DD000006838B1012630070C490860BFF34F8FF7
:102DE000BFF36F8FFFF752FC304670BD50000020DC
:102DF0002800002014040020300000206003002080
:102E0000180000203C0000203800002004ED00E005
:102E10004FF04070E1EE100A704700006C2E000881
:102E2000991600080000000000000000800000006B
:102E30000000000000000000782E0008B91600080D
:102E4000FDFF000000000000800000000000000006
:102E50000000000000000000000000000102030468
:102E60000607080900000000010203044C45443035
:102E70005F5461736B0000004C4544315F546173D3
:102E80006B000000A42E000800000020800000005D
:102E9000C4010008242F00088000002030460000F4
:102EA000E001000800000000000000000000000039
:102EB00010000000010000000024F40000000000E9
:102EC0000000000000000000000000000000000002
:102ED00000000000000000000000000000000000F2
:102EE00000000000000000000000000000000000E2
:102EF00000000000000000000000000000000000D2
:102F000000000000000000000000000000000000C1
:102F10000000000000000000AAAAAAAA0000000009
:042F200000000000AD
:040000050800018965
:00000001FF
