:020000040800F2
:10000000284B002061020008B918000857170008A3
:10001000B5180008CB030008311F000800000000DD
:10002000000000000000000000000000A101000826
:10003000CF03000800000000FD01000801190008BE
:100040008102000881020008810200088102000884
:100050008102000881020008810200088102000874
:100060008102000881020008810200088102000864
:100070008102000881020008810200088102000854
:100080008102000881020008810200088102000844
:100090008102000881020008810200088102000834
:1000A00081020008ED1900088102000881020008A1
:1000B0008102000881020008810200088102000814
:1000C0008102000881020008810200088102000804
:1000D00081020008E11E0008810200088102000878
:1000E00081020008810200088102000881020008E4
:1000F00081020008810200088102000881020008D4
:1001000081020008810200088102000881020008C3
:100110008102000881020008FD1900088102000820
:1001200081020008810200088102000881020008A3
:100130008102000881020008810200088102000893
:100140008102000881020008810200088102000883
:100150008102000881020008810200088102000873
:100160008102000881020008810200088102000863
:1001700081020008810200088102000800000000DE
:100180008102000881020008DFF810D000F0E0F8DA
:10019000004800474D200008AFF30080284B0020A6
:1001A0002C4B19680868B0E8F04F80F30988BFF35A
:1001B0006F8F4FF0000080F311887047000000003F
:1001C00008480068006880F308884FF0000080F35A
:1001D000148862B661B6BFF34F8FBFF36F8F00DF35
:1001E00000BF00BF08ED00E0DFF80C00016841F43B
:1001F00070010160704700BF88ED00E0EFF30980F7
:10020000BFF36F8F134B1A681EF0100F08BF20ED5D
:10021000108A20E9F04F106009B44FF0BF0080F35E
:100220001188BFF34F8FBFF36F8F02F05FFB4FF06A
:10023000000080F3118809BC19680868B0E8F04F25
:100240001EF0100F08BFB0EC108A80F30988BFF3CE
:100250006F8F704780000020EFF30580704700002B
:100260000848016841F47001016007480047FEE753
:10027000FEE7FEE7FEE7FEE7FEE7FEE7FEE7FEE756
:10028000FEE7000088ED00E0890100082DE9F05F3D
:100290000546002092469B468846064681464024F5
:1002A0001BE0284641464746224600F041F85346A7
:1002B0005A46C01A914110D311461846224600F002
:1002C00028F82D1A67EB01084F462246012000212D
:1002D00000F01FF817EB00094E41201EA4F10104A5
:1002E000DFDC484631462A464346BDE8F09FD2B29D
:1002F00001E000F8012B491EFBD270470022F6E70F
:1003000010B513460A4604461946FFF7F0FF20468B
:1003100010BD202A04DB203A00FA02F100207047C9
:100320009140C2F1200320FA03F319439040704733
:10033000202A04DB203A21FA02F00021704721FA3A
:1003400002F3D040C2F120029140084319467047A1
:10035000064C074D06E0E06840F0010394E8070012
:1003600098471034AC42F6D3FFF712FFF82C000880
:10037000182D00081CB50A48012100234A02CDE9C6
:10038000001008A10A4802F005FB0A4802210023D8
:100390000A02CDE9001008A10A4802F0FBFA1CBDD0
:1003A00000000020764C4544305F5461736B0000C0
:1003B000ED26000804000020764C4544315F54616E
:1003C000736B000019270008704700BFFEE77047F5
:1003D00072B600BFFEE770B50446A56D00F076F971
:1003E000064694F83500022808D08020606500BFDA
:1003F000002084F8340000BF012070BD2068006830
:1004000020F01600216808602068406920F0800014
:1004100021684861206C08B9A06C28B12068006888
:1004200020F00800216808602068006820F00100C2
:10043000216808600FE000F049F9801B05280AD9FF
:100440002020606500BF002084F8340000BF032036
:1004500084F83500D1E72068006800F0010000282A
:10046000E9D194F85C103F208840A86000BF0020CC
:1004700084F8340000BF012084F835000020BCE778
:10048000014691F83500022803D0802048650120FC
:100490007047052081F835000868006820F00100E9
:1004A0000A6810600020F3E7F8B502460B46002505
:1004B000002400200021DEE0012606FA01F51E6876
:1004C00006EA0504AC4275D11E7906F00306012E3A
:1004D00004D01E7906F00306022E13D190684F0057
:1004E0000326BE40B0434F00DE68BE4030439060FC
:1004F000506801268E40B0431E79C6F300168E4028
:10050000304350601E7906F00306032E09D0D068F0
:100510004F000326BE40B0434F009E68BE403043AC
:10052000D0601E7906F00306022E13D1CF0802F127
:10053000200656F827004E07F70E0F26BE40B043A0
:100540004F07FF0E1E69BE403043CF0802F1200660
:1005500046F8270010684F000326BE40B0431E79BE
:1005600006F003064F00BE40304310605E6806F0A0
:100570008056B6F1805F7DD100BF00260096404EC8
:10058000366846F480463E4F3E603E46366806F486
:100590008046009600BF00BF3A4E8F0856F82700ED
:1005A0008E07370F0F26BE40B043374EB24202D1FE
:1005B000002624E05EE0354EB24201D101261EE065
:1005C000334EB24201D1022619E0324EB24201D17D
:1005D000032614E0304EB24201D104260FE02F4E24
:1005E000B24201D105260AE02D4EB24201D10626C3
:1005F00005E02C4EB24201D1072600E008268F0705
:100600003F0FBE4030431F4E8F0846F82700264E4E
:100610003068A0435E6806F48036B6F5803F00D1AE
:100620002043214E3060361D3068A0435E6806F4DA
:100630000036B6F5003F00D120431B4E361D30601A
:10064000361D3068A0435E6806F48016B6F5801F3C
:1006500000D12043144E08363060361D3068A04368
:100660005E6806F40016B6F5001F00D120430E4E5A
:100670000C363060491C1029FFF41EAFF8BD000095
:1006800044380240083801400000024000040240A3
:1006900000080240000C024000100240001402401A
:1006A00000180240001C0240003C014010B54269A5
:1006B00021EA020302EA010443EA0443836110BD14
:1006C0000AB1816101E00B04836170470148006851
:1006D0007047000050000020034800680349097873
:1006E000084401490860704750000020580000206D
:1006F00010B50A48006840F40070084908600846D0
:10070000006840F480600860052000F09FF80F202A
:1007100000F006F800F04AF8002010BD003C02404E
:1007200070B588B0044600250026002221463620F8
:1007300000F04DF8362000F03AF800BF002001909C
:100740001648006840F01000144908600846006828
:1007500000F01000019000BF00BF02A903A800F044
:1007600051F900F077F945000D48B5FBF0F0461E51
:100770000C480D49086040F2E7310B48C160466003
:1007800000210161816000F02DFC20B9064800F0D5
:100790005DFC08B070BD0120FBE70000403802405E
:1007A00040420F0000100040080100207047014641
:1007B0000846002809DB00F01F0301229A40430984
:1007C0009B0003F1E023C3F8002100BF70472DE92F
:1007D000F05F80460D461646002701F0B3FB074642
:1007E00039462A46334601F00700C0F1070ABAF13C
:1007F000040F02D94FF0040A01E0C0F1070AD14604
:1008000000F1040ABAF1070F02D24FF0000A01E02A
:10081000A0F1030AD4464FF0010A0AFA09FAAAF134
:10082000010A0AEA020A0AFA0CFA4FF0010B0BFA63
:100830000CFBABF1010B0BEA030B4AEA0B0421465C
:10084000404601F087FBBDE8F09F000000BF00F0CC
:100850000702064B19684FF6FF031940044B0B4380
:1008600043EA0221014B196000BF70470CED00E024
:100870000000FA0570B504460D460CB9012070BDA4
:100880005848006800F00700A84209D255490D7089
:100890000846006800F00700A84201D00120EEE7FA
:1008A000207800F0020002281DD1207800F004001A
:1008B000042805D14C48006840F4E0504A490860DB
:1008C000207800F00800082805D14748006840F467
:1008D0006040454908604448006820F0F000A16885
:1008E000084341490860207800F00100A8B360681F
:1008F000012807D13C4808380068C0F34040B8B927
:100900000120BCE76068022802D06068032807D194
:10091000354808380068C0F3406048B90120AEE7A8
:10092000314808380068C0F3400008B90120A6E744
:100930002D48006820F00300616808432A490860D8
:10094000FFF7C4FE064609E0FFF7C0FE801B41F238
:100950008831884202D9032091E707E022480068E5
:1009600000F00C006168B0EB810FEDD11D4800680C
:1009700000F00700A84209D91A490D70084600681E
:1009800000F00700A84201D0012078E7207800F0AD
:100990000400042807D11448006820F4E050E168FE
:1009A000084311490860207800F00800082808D1A1
:1009B0000D48006820F46040216940EAC1000A49FE
:1009C000086000F067F808490968C1F30311074A95
:1009D000515CC8400649086006480068FFF7A0FE61
:1009E00000204CE7003C024008380240E02C0008A0
:1009F0000C0000205400002001200149C864704709
:100A0000000047420F2202600D4A126802F0030202
:100A100042600B4A126802F0F0028260084A1268D3
:100A200002F4E052C260064A126802F46042D20840
:100A30000261044A126802F007020A60704700006F
:100A400008380240003C024001480068704700003E
:100A50000C00002000B5FFF7F7FF04490968C1F357
:100A60008221034A515CC84000BD000008380240A2
:100A7000F02C000800B5FFF7E7FF04490968C1F34F
:100A80004231034A515CC84000BD000008380240B2
:100A9000F02C00082DE9F047002400250026A1468F
:100AA0002548006800F00C0020B1042805D0082873
:100AB0003AD105E0DFF8849039E0DFF8849036E041
:100AC0001D48001F006800F03F041B48001F00681D
:100AD00000F4800078B11A481749091F0968C1F36A
:100AE0008811A0FB01700146224600233846FFF71B
:100AF000CDFB05460EE011480F49091F0968C1F3F7
:100B00008811A0FB01700146224600233846FFF7FA
:100B1000BDFB05460848001F0068C0F30140401CAB
:100B20004600B5FBF6F902E0DFF8109000BF00BF09
:100B30004846BDE8F0870000083802400024F40071
:100B400000127A00F8B504460CB90120F8BD2078EF
:100B500000F00100002874D0F948006800F00C0093
:100B600004280DD0F648006800F00C00082813D1C6
:100B7000F348001F006800F48000B0F5800F0BD12F
:100B8000EF4808380068C0F34040002859D060683A
:100B9000002856D10120D9E700BF6068B0F5803F3A
:100BA00008D1E7480838006840F48030E449083943
:100BB00008601EE06068B0F5A02F0DD1E04808384D
:100BC000006840F48020DE49083908600846006863
:100BD00040F4803008600CE0D9480838006820F400
:100BE0008030D749083908600846006820F4802022
:100BF000086000BF606890B1FFF768FD054606E039
:100C0000FFF764FD401B642801D903209EE7CC4810
:100C100008380068C0F340400028F1D011E0FFF729
:100C200055FD054606E0FFF751FD401B642801D93C
:100C300003208BE7C24808380068C0F34040002812
:100C4000F1D1207800F0020002285FD1BC48006892
:100C500000F00C0058B1BA48006800F00C000828F9
:100C60001CD1B748001F006800F48000B0B9B44838
:100C700008380068C0F3400020B1E068012801D0C6
:100C8000012063E7AE480838006820F0F8002169C9
:100C900040EAC100AA490839086037E0E06800B3BB
:100CA0000120A8490860FFF711FD054606E0FFF79F
:100CB0000DFD401B022801D9032047E7A048083852
:100CC0000068C0F340000028F1D09D480838006853
:100CD00020F0F800216940EAC1009949083908600C
:100CE00014E0002097490860FFF7F0FC054606E095
:100CF000FFF7ECFC401B022801D9032026E79048AF
:100D000008380068C0F340000028F1D1207800F0D6
:100D1000080008282CD16069A8B101208A49086020
:100D2000FFF7D4FC054606E0FFF7D0FC401B022885
:100D300001D903200AE782486C300068C0F3400004
:100D40000028F1D014E000207F490860FFF7BEFCC6
:100D5000054606E0FFF7BAFC401B022801D9032034
:100D6000F4E677486C300068C0F340000028F1D109
:100D7000207800F00400042870D100277048383033
:100D8000006800F0805090B900BF002000906C48CF
:100D90003830006840F080506949383108600846B2
:100DA000006800F08050009000BF00BF0127674836
:100DB000006800F48070B0B96448006840F4807046
:100DC00062490860FFF782FC054606E0FFF77EFCFB
:100DD000401B022801D90320B8E65C48006800F4F3
:100DE00080700028F2D000BFA068012808D15448C4
:100DF0006830006840F001005149683108601DE02A
:100E0000A06805280DD14E486830006840F0040005
:100E10004B49683108600846006840F001000860EE
:100E20000CE047486830006820F001004449683110
:100E300008600846006820F00400086000BFA06851
:100E4000A8B1FFF743FC054609E0FFF73FFC401B54
:100E500041F28831884202D9032077E626E03848FB
:100E600068300068C0F340000028EED013E0FFF7C0
:100E70002DFC054608E0FFF729FC401B41F28831B4
:100E8000884201D9032061E62D4868300068C0F32C
:100E900040000028EFD1012F07D1294838300068E1
:100EA00020F0805026493831086000BFA069002832
:100EB00045D02348006800F00C0008285DD0A069E8
:100EC000022845D100201F490866FFF7FFFB0546B1
:100ED00006E0FFF7FBFB401B022801D9032035E6A3
:100EE000174808380068C0F340600028F1D1D4E901
:100EF00007010843616A40EA81110122A06AC2EB3E
:100F0000500041EA00412C20005D41EA00600C499C
:100F1000091F086001200B490866FFF7D7FB05464B
:100F200006E0FFF7D3FB401B022801D903200DE6A2
:100F3000034808380068C0F340600028F1D049E059
:100F40000838024000004742800E474200700040CF
:100F5000002021490866FFF7B9FB054606E0FFF7C8
:100F6000B5FB401B022801D90320EFE51B480068B0
:100F7000C0F340600028F2D12CE0A069012800D124
:100F8000E4E51648001D0668A069012820D006F493
:100F90008001E06981421BD106F03F01206A814255
:100FA00016D147F6C0703040616AB0EB811F0FD197
:100FB00006F440310122A06AC2EB5000B1EB004FB1
:100FC00006D106F070612C20005DB1EB006F01D0FE
:100FD0000120BBE50020B9E500004742003802408F
:100FE0007047704710B504460CB9012010BD94F845
:100FF0003D0028B9002084F83C00204600F025F888
:10100000022084F83D00211D206800F0FFFC012033
:1010100084F8460000BF84F83E0001213F200155BE
:10102000402001554120015500BF00BF012084F838
:10103000420043200155442001554520015500BF81
:10104000012084F83D000020D0E77047014691F868
:101050003D00012801D001207047022081F83D00A9
:101060000868C06840F001000B68D8601A4B086837
:1010700098421BD00868B0F1804F17D0174B086812
:10108000984213D0164B086898420FD0154B086849
:1010900098420BD0144B0868984207D0134B08684D
:1010A000984203D0124B086898420CD108688068B7
:1010B00000F00702062A0CD00868006840F0010022
:1010C0000B68186005E00868006840F001000B68D4
:1010D00018600020C0E7000000000140000400404C
:1010E00000080040000C00400004014000400140A6
:1010F00000180040704710B5044620680069C0F32E
:101100004000D8B12068C068C0F34000B0B16FF0B3
:10111000020021680861012020772068806900F0C2
:10112000030018B12046FFF7E5FF05E0204600F078
:10113000ADF8204600F0ABF8002020772068006969
:10114000C0F38000D8B12068C068C0F38000B0B19F
:101150006FF0040021680861022020772068806910
:1011600000F4407018B12046FFF7C4FF05E02046A8
:1011700000F08CF8204600F08AF8002020772068E4
:101180000069C0F3C000D8B12068C068C0F3C000D7
:10119000B0B16FF008002168086104202077206852
:1011A000C06900F0030018B12046FFF7A3FF05E077
:1011B000204600F06BF8204600F069F80020207708
:1011C00020680069C0F30010D8B12068C068C0F37F
:1011D0000010B0B16FF0100021680861082020777E
:1011E0002068C06900F4407018B12046FFF782FF04
:1011F00005E0204600F04AF8204600F048F80020BC
:1012000020772068006900F0010058B12068C068AC
:1012100000F0010030B16FF0010021680861204644
:1012200000F036F820680069C0F3C01058B120689B
:10123000C068C0F3C01030B16FF080002168086151
:101240002046FFF7CDFE20680069C0F3801058B13A
:101250002068C068C0F3801030B16FF04000216892
:101260000861204600F030F820680069C0F34010A3
:1012700058B12068C068C0F3401030B16FF0200052
:10128000216808612046FFF7ACFE10BD704770472B
:1012900070B5054600BFBF21EFF3118081F31188BF
:1012A000BFF34F8FBFF36F8F00BF04460549286817
:1012B000884201D1FFF710FA00BF84F3118800BF04
:1012C00070BD000000100040704770477047014635
:1012D0000022002391F83D2091F83E3042EA0300BD
:1012E000704700002DE9F84F044620680568206823
:1012F000C668206847694FF00009CA4605F00F0923
:10130000B9F1000F0AD105F0200038B106F0200035
:1013100020B1204600F01BFCBDE8F88FB9F1000FAA
:1013200072D007F0010018B906F4907000286BD055
:1013300005F0010030B106F4807018B1206C40F067
:101340000100206405F0040030B107F0010018B17D
:10135000206C40F00200206405F0020030B107F07C
:10136000010018B1206C40F00400206405F0080072
:1013700048B106F0200010B907F0010018B1206C48
:1013800040F008002064206C70B305F0200028B104
:1013900006F0200010B1204600F0D9FB206840691B
:1013A000C0F3801A206C00F0080010B9BAF1000FE9
:1013B00023D0204600F0A0FB2068406900F04000E8
:1013C000402816D12068406920F04000216848611B
:1013D000A06B50B15648A16B0865A06BFFF750F8A1
:1013E00010B1A06B016D88470CE02046FFF76EFF3F
:1013F00008E02046FFF76AFF04E02046FFF766FF9B
:101400000020206488E7FFE7206B012879D105F0F0
:101410001000002875D006F01000002871D000BF21
:1014200000200090206800680090206840680090CC
:1014300000BF00BF2068406900F04000402839D15B
:10144000A06B006840681FFA80F8B8F1000F30D038
:10145000A08D40452DDDA4F82E80A06BC069B0F5AD
:10146000807F1FD02068C06820F480702168C86029
:101470002068406920F001002168486120684069C7
:1014800020F0400021684861202084F83E000020C0
:1014900020632068C06820F010002168C860A06B3D
:1014A000FEF799FFA08DE28D801A81B22046FFF7EA
:1014B0000CFF31E7A08DE18D401A1FFA80F8E08D16
:1014C000E8B1B8F1000F1AD02068C06820F490701D
:1014D0002168C8602068406920F0010021684861E7
:1014E000202084F83E00002020632068C06820F09F
:1014F00010002168C86041462046FFF7E6FE0BE772
:10150000FFE705F0800030B106F0800018B12046FA
:1015100000F0B5FC00E705F0400030B106F04000F7
:1015200018B1204600F003FBF6E600BFF4E6000029
:10153000E51A000810B504460CB9012010BDA069D9
:1015400000B100E000BF94F83D0028B9002084F805
:101550003C00204600F028F8242084F83D00206854
:10156000C06820F400502168C860204600F04EFB9F
:101570002068006920F49040216808612068406973
:1015800020F02A00216848612068C06840F40050BB
:101590002168C86000202064202084F83D0084F881
:1015A0003E000020CAE7000010B586B004462E4970
:1015B0002068884255D100BF00BF002000902B4812
:1015C000006840F01000294908600846006800F0F3
:1015D0001000009000BF00BF00BF00BF00BF002090
:1015E000009022481438006840F001001F49143967
:1015F00008600846006800F00100009000BF00BFCE
:1016000000BF00BF00BF002000900846006840F007
:10161000010008600846006800F00100009000BF6B
:1016200000BF00BF481501900220029001200390E6
:10163000022004900720059001A90D48FEF734FF11
:101640004FF4806001900720059001A90848FEF73B
:101650002BFF2520FFF7ABF8032211462520FFF7CB
:10166000B6F806B010BD000000100140443802403A
:101670000000024070B504460D46164694F83E0040
:10168000202816D105B10EB9012070BD00BF94F815
:101690003C00012801D10220F7E7012084F83C003A
:1016A00000BF0020206332462946204600F0C4FBDC
:1016B000EBE70220E9E7000010B504462049206866
:1016C00088423BD11F48008800F4004088BB1D4879
:1016D000008800F4804070B11B4800780A2803D0CD
:1016E00000201849088024E01648008840F4004093
:1016F000144908801DE0144800780D2806D11148CF
:10170000008840F480400F49088012E00E480078BD
:101710000C490988C1F30D010C4A5054094800884E
:10172000401C0849088008460088C72801DD0020C1
:101730000880012204490648FFF79CFF10BD000005
:1017400000100140480000204A0000205001002005
:1017500018020020704700BFFEE7000000B587B008
:10176000142102A8FEF7CAFD00BF002001904E48D8
:10177000006840F004004C4908600846006800F02A
:101780000400019000BF00BF00BF00200190084688
:10179000006840F0200008600846006800F0200063
:1017A000019000BF00BF00BF002001900846006804
:1017B00040F0800008600846006800F0800001905A
:1017C00000BF00BF00BF002001900846006840F045
:1017D000100008600846006800F01000019000BF8B
:1017E00000BF00BF002001900846006840F00200E2
:1017F00008600846006800F00200019000BF00BFCA
:1018000000BF002001900846006840F00800086012
:101810000846006800F00800019000BF00BF00BF4C
:10182000002001900846006840F00100086008466A
:10183000006800F00100019000BF00BF00BF002061
:1018400001900846006840F04000086008460068C3
:1018500000F04000019000BF00BF00224FF4C061C3
:101860001248FEF72DFF00224FF400411048FEF70A
:1018700027FF4FF4C06002900120039002200490E3
:101880000020059002A90948FEF70EFE4FF4004023
:1018900002900120039000200490059002A90448C2
:1018A000FEF702FE07B000BD3038024000140240CF
:1018B0000004024000BFFEE77047000010B5064973
:1018C00048688047054806490860FFF747FF4FF41E
:1018D000E13000F0DBFE10BD18000020007A030AA2
:1018E0001000002010B502A000F024FB10BD000085
:1018F00054657374B2E2CAD4546573740D0A00005F
:1019000010B500BFBF2080F31188BFF34F8FBFF326
:101910006F8F00BF01F06EF818B14FF0805004498E
:10192000086000BF002080F3118800BF10BD0000D8
:1019300004ED00E000B593B0302107A8FEF7DEFC0F
:10194000142102A8FEF7DAFC00BF00200190254810
:10195000006840F08050234908600846006800F0A5
:101960008050019000BF00BF00BF002001901E48C2
:10197000006840F480401C4908600846006800F494
:101980008040019000BF00BF012007900004089034
:1019900002200D9041050E9108210F914FF4A8717E
:1019A0001091022111910421129107A8FFF7CAF8A2
:1019B00008B1FEF70DFD0F200290022003900020D9
:1019C00004904FF4A05005904FF4805006900521EC
:1019D00002A8FEF74FFF08B1FEF7FAFCFFF70CF87C
:1019E00013B000BD403802400070004010B50248FE
:1019F000FFF781FB10BD0000C000002010B50248B9
:101A0000FFF779FB10BD00000801002010B5026847
:101A1000294B98420ED0B0F1804F0BD0274B984203
:101A200008D0274B984205D0264B984202D0264B2F
:101A3000984203D122F070024B681A431E4B984221
:101A400020D0B0F1804F1DD01C4B98421AD01C4BB7
:101A5000984217D01B4B984214D01B4B984211D080
:101A60001A4B98420ED01A4B98420BD0194B984201
:101A700008D0194B984205D0184B984202D0184B09
:101A8000984203D122F44072CB681A4322F08003BB
:101A90004C6943EA040202608B68C3620B6883628C
:101AA000054B984202D0084B984201D10B69036361
:101AB0000123436110BD000000000140000400400C
:101AC00000080040000C00400004014000400140BC
:101AD000004401400048014000180040001C004044
:101AE0000020004070B50546AC6B0020E085E08426
:101AF0002046FFF7EBFB70BD0168C96821F49071C7
:101B00000268D1600168496921F0010102685161F0
:101B1000016B012905D10168C96821F01001026833
:101B2000D160202180F83E1000210163704710B57C
:101B300004462068C06820F040002168C86020206A
:101B400084F83D002046FFF705FE002010BD70B56B
:101B5000044694F83E00222856D1A068B0F5805F74
:101B60000CD1206950B90025A66A20684068C0F3EE
:101B700008003080A06A801CA06215E0A56A0026DB
:101B8000A068B0F5805F03D0A06828B9206918B9B3
:101B900020684068287004E02068406800F07F00FA
:101BA0002870A06A401CA062E08D401E80B2E085D3
:101BB00040BB2068C06820F020002168C860206811
:101BC000C06820F480702168C8602068406920F0F7
:101BD000010021684861202084F83E00206B012824
:101BE0000AD12068C06820F010002168C860A18D6B
:101BF0002046FFF76AFB02E02046FFF75DFD00206C
:101C0000206370BD0020FCE70220FAE72DE9F84FC1
:101C100004462068006920F44050E16808432168C8
:101C200008612169A068084361690843E1690843C4
:101C300000902068C06849F20C618843009908430D
:101C40002168C8602068406920F44070A169084399
:101C50002168486176492068884203D07549206828
:101C6000884203D1FEF706FF814602E0FEF7F2FE4E
:101C70008146E069B0F5004F6CD102206168A0FB9D
:101C8000015003461920A9FB007001462A46384638
:101C9000FEF7FCFA6421B0FBF1F04FEA001A0220D3
:101CA0006168A0FB01510B461920A9FB00712A466F
:101CB0003846FEF7EBFA834602206168A0FB01502C
:101CC00003461920A9FB00712A463846FEF7DEFAC2
:101CD0006421B0FBF1F000EBC00101EB0010ABEBB5
:101CE0008000322101EBC0006421B0FBF1F000F074
:101CF000F8000AEB400A02206168A0FB015003468D
:101D00001920A9FB007001462A463846FEF7BEFAA4
:101D1000834602206168A0FB015003461920A9FBFD
:101D200000712A463846FEF7B1FA6421B0FBF1F0A3
:101D300000EBC00101EB0010ABEB8000322101EBA6
:101D4000C0006421B0FBF1F000F0070050442168AE
:101D500088606AE004206168A0FB015003461920F6
:101D6000A9FB007001462A463846FEF78FFA8246E4
:101D700004206168A0FB015003461920A9FB0070F4
:101D800001462A463846FEF781FA6421B0FBF1F09D
:101D900000EBC00101EB0010AAEB8000322101EB47
:101DA00000106421B0FBF1F000F0F00A042061683B
:101DB000A0FB017003461920A9FB00513A462846B2
:101DC000FEF764FA6421B0FBF1F00AEB001A04207C
:101DD0006168A0FB01510B461920A9FB00712A463E
:101DE0003846FEF753FA834604206168A0FB015091
:101DF00003461920A9FB007001462A463846FEF723
:101E000045FA6421B0FBF1F000EBC00101EB0010DA
:101E1000ABEB8000322101EB00106421B0FBF1F04C
:101E200000F00F00504421688860BDE8F88F000082
:101E3000001001400014014010B5034699629A85D4
:101E4000DA8500201864222083F83E0000BF0020BD
:101E500083F83C0000BF1868C06840F480701C68BC
:101E6000E0601868406940F001001C686061186813
:101E7000C06840F020001C68E060002010BD0146F2
:101E800091F83D00212828D18868B0F5805F0BD1FA
:101E9000086948B90A6A1088C0F308000B685860DE
:101EA000086A801C086205E00B6A581C08621878F2
:101EB0000B685860C88C401E80B2C88458B9086846
:101EC000C06820F080000B68D8600868C06840F0E7
:101ED00040000B68D860002070470220FCE700003B
:101EE00070B500240F4D1048FFF7FCF900BF03E068
:101EF000641CAC4200D904E00B48FFF7E8F9202845
:101F0000F6D100BF002403E0641CAC4200D906E017
:101F1000012206490448FFF7ADFB0028F4D100BFB9
:101F200070BD0000FFFF0100180200204A000020E1
:101F300000BFFEE7014A024900F02FB83120000837
:101F40004400002002480068C0F3022070470000EF
:101F50000CED00E010B5002804DB0A07130E054A5B
:101F6000135406E00A07140E034A00F00F031B1F68
:101F7000D45410BD00E400E018ED00E002E008C811
:101F8000121F08C1002AFAD170477047002001E0F3
:101F900001C1121F002AFBD170472DE9F0411646FE
:101FA0000F460446002503E03946B047641C6D1C0B
:101FB00020780028F8D12846BDE8F0812DE9F047C7
:101FC000074600264FF0E020006900F0010008B944
:101FD00000F028FC4FF0E020D0F814801248006890
:101FE0001249B0FBF1F000FB07F900F077FC4FF06D
:101FF000E020856911E04FF0E0208469AC420CD00C
:10200000AC4202D2281B064403E0A8EB040028449B
:10201000064425464E4500D300E0ECE700BF00F043
:10202000B1FDBDE8F08700000C00002040420F0029
:1020300000BF054A126802F04002002AF9D0C2B27D
:10204000014B5A607047000000100140FEF750FB42
:1020500006490868804706490868804705490868B6
:10206000804700F005FC00BFFEE700004C000020A8
:1020700018000020080000202DE9F04105460E461A
:102080002648076826480068001D00F01BFB50B971
:102090002348006890F82C100120884021490968E5
:1020A000814320480160681CD8B9D6B11E494868F0
:1020B0001B49096888601A4982680968CA6018491A
:1020C0000968091D8268516015490968091D816008
:1020D000154A134909684A6111460968491C11608B
:1020E0001AE07C190E4800684460BC4207D20C48D4
:1020F0000168091D0D48006800F02CFB0CE0084841
:102100000168091D0A48006800F024FB09480068BE
:10211000844201D207480460BDE8F08194000020A9
:102120008000002098000020104700208800002038
:1021300084000020B000002010B5044600F024FB0D
:102140002F480068401C2E4908602E48006840B99E
:102150002C4804600846006801280DD100F024F9DD
:102160000AE02948006838B926480068C06AE16A70
:10217000884201D82348046024480068401C234951
:10218000086094F82C100120884021490968084310
:102190001F490860E16A01EB81011E4A02EB8101DF
:1021A0004868A0608268E260211D82685160816099
:1021B000E16A01EB8101174A02EB81026261E16A87
:1021C00001EB8101134A52F82110491CE26A02EB2B
:1021D0008202104B43F8221000F0E8FA0A48006827
:1021E00068B108480068C06AE16A884207D24FF0C7
:1021F000805009490860BFF34F8FBFF36F8F10BD48
:1022000090000020800000209C000020AC000020F6
:10221000980000205C46002004ED00E010B516E0B8
:1022200000F0B2FA0C48C068C468201D00F04AFAF9
:102230000A480068401E0949086009480068401EB5
:102240000749086000F0B2FA204600F00BF8044895
:1022500000680028E4D110BDFC460020900000205A
:102260008C00002010B50446206B00F0AFFA204629
:1022700000F0ACFA10BD000030B54FF488431748A9
:1022800000F007042CB1C01D20F00700134C041B04
:102290001B1B0246124C22600024114D6C60D018AA
:1022A000083820F007000F4C206000240D4D2D68E9
:1022B0006C600C4D2D682C601146441A4C60094C22
:1022C00024680C60084D4C682C60084D4C682C60EC
:1022D0004FF00044064D2C6030BD00005C02002031
:1022E0005C000020640000206C00002068000020DA
:1022F0007800002000BFFFF791FF06480068012822
:10230000F9D94FF0805004490860BFF34F8FBFF3F5
:102310006F8FF0E75C46002004ED00E02DE9FF5FE1
:1023200080460E469146DDE90E7A109CA9F1010027
:10233000216B01EB800B2BF0070B86B1002507E02A
:10234000715D04F134004155705D00B902E06D1C0F
:10235000102DF5D300BF00214320015502E00020DD
:1023600084F83400052F00D30427E762201D00F015
:10237000EEF904F1180000F0EAF92461C7F1050054
:10238000A06164620020606484F8480041465846B9
:10239000039A00F013F92060BAF1000F01D0CAF8D7
:1023A0000040BDE8FF9F000010B5002407E004EBEB
:1023B00084010F4A02EB810000F0BCF9641C052C7B
:1023C000F5D30C4800F0B6F90B4800F0B3F90B4810
:1023D00000F0B0F90A4800F0ADF90A4800F0AAF997
:1023E00004480949086004480849086010BD000015
:1023F0005C460020C0460020D4460020E84600206D
:10240000FC460020104700208400002088000020A7
:1024100010B50146164800E0006803688B42FBD304
:102420000246436813448B4204D143684C682344FA
:10243000436001460A464B6813440468A34211D125
:102440000C4C03682468A34208D04B680468646895
:1024500023444B6003681B680B6005E0054B1B6859
:102460000B6001E003680B60884200D0016010BD82
:102470005C0000206400002009480068006808B97A
:10248000012000E0002020B14FF0FF300549086036
:1024900005E003480068C0680068024908607047AA
:1024A00084000020B000002000BFBF2080F311880E
:1024B000BFF34F8FBFF36F8F00BF00BFFEE7000079
:1024C0002DE9F04104464FF0000800F007FA3548C6
:1024D000006808B9FFF7D0FE3348006820400028A4
:1024E0005BD1B4B104F10800A04212D9083404F061
:1024F000070078B104F00700C0F108002044A042B2
:1025000005D904F00700C0F10800044402E00024EB
:1025100000E00024002C40D02448006884423CD8CD
:10252000234E3046056801E02E462D686868A042BB
:1025300002D228680028F7D11A48006885422CD0BA
:10254000306800F10808286830606868001B1028AF
:1025500007D92F196868001B78606C603846FFF750
:1025600057FF124968680968081A10490860084648
:10257000006810490968884203D20C4800680D4978
:102580000860094968680968084368600020286095
:1025900009480068401C0849086000F0F3FA40460A
:1025A000BDE8F08164000020780000206800002071
:1025B0005C0000206C00002070000020001F4FF025
:1025C00080730360001F21F001030360001F054BAF
:1025D000036014380260001F6FF0020303602038AC
:1025E00070470000A924000872B6704762B67047B1
:1025F00000BF80F3088800BF704700004A0A5202FB
:102600000243014B1A60704708ED00E000BF00BFB5
:1026100000BF00BF00BFBFF34F8F00BF00BF00BFB0
:102620000948006800F4E06008490843001D0649B5
:10263000086000BF00BF00BFBFF34F8F00BF00BFE7
:1026400000BF00BF00BFFDE70CED00E00000FA0591
:1026500008B500BF002000900948006840F0805095
:10266000074908600846006800F08050009000BFED
:1026700000BF0448006840F002000249086008BD3D
:10268000403802400070004030BF704710B504462B
:1026900009480A4908600846446000218160C16019
:1026A000016181610C214161FEF744FF012204496F
:1026B0000248FEF7DFFF10BD0010014018020020A5
:1026C0004A00002001460A69D1E901309860D1E949
:1026D000010358605068884201D18868506000202A
:1026E00008611068401E1060106870470BE04FF4DE
:1026F00000710548FDF7DAFF4FF47A7000F09EF89C
:1027000002A0FFF717FCF2E700140240D6D0CEC4B7
:10271000B2E2CAD40D0A000008E04FF48061044818
:10272000FDF7C4FF4FF47A7000F088F8F5E7000079
:102730000014024000F1080141604FF0FF31816058
:1027400000F10801C16001610021016070470021B2
:102750000161704710B502460B685C1C0CB910692A
:1027600007E002F1080000E04068446824689C42E9
:10277000FAD944684C604C68A160886041600A6185
:102780001468641C146010BD00BFBF2080F3118862
:10279000BFF34F8FBFF36F8F00BF03480068401C2B
:1027A00001490860704700007C000020064800686E
:1027B000401E054908600846006820B9002080F3E3
:1027C000118800BF00BF70477C00002070B506462E
:1027D0003546FEB1083D2C460F496068096808403F
:1027E000C0B12068B0B90C4960680968884360606E
:1027F00000F074F8094960680968084407490860EE
:102800002046FFF705FE06480068401C04490860A2
:1028100000F0B8F970BD00007800002068000020CA
:102820007400002000204FF0E02108618861024818
:1028300048610720086170473F90020070B5044668
:10284000002544B100F04AF800212046FFF714FCAF
:1028500000F098F905463DB94FF0805003490860F3
:10286000BFF34F8FBFF36F8F70BD000004ED00E02A
:102870001CB5124800210B468022CDE9001010A1A2
:10288000114800F087F80446012C14D100BFBF2086
:1028900080F31188BFF34F8FBFF36F8F00BF4FF0EE
:1028A000FF300A49086001200949086000200949F1
:1028B000086000F04BF8084800681CBDB400002018
:1028C00049444C4500000000F5220008B0000020FB
:1028D0009C00002094000020B800002002480068FE
:1028E000401C014908607047BC0000201248006885
:1028F00018B10120114908601DE000200F4908604F
:102900000F480068B0FA80F0C0F11F0101EB8102AE
:102910000C4B03EB820042685268426000F10802EF
:102920004368934202D14268526842604268D2686A
:10293000054B1A6000BF7047BC000020A4000020B7
:10294000980000205C4600208000002010B50E4852
:10295000006840F47F000C4908600846006840F0B9
:102960007F400860FFF75EFF002008490860FDF720
:102970003BFC0748006840F0404005490860FDF70F
:102980001FFC002010BD000020ED00E07C000020B6
:1029900034EF00E02DE9FF4F85B0804689461746A9
:1029A000DDE912ABB800FFF78BFD064656B14C20AF
:1029B000FFF786FD04460CB1266304E03046FFF7BE
:1029C00005FF00E000247CB10020CDE900ABCDE99B
:1029D00002403A4649464046089BFFF79FFC204686
:1029E000FFF7AAFB012501E04FF0FF35284609B0AB
:1029F000BDE8F08F2DE9F041002757480068002816
:102A00007ED156480068451C544805608DB954482D
:102A1000D0F8008053480068514908605148C0F818
:102A2000008051480068401C4F490860FFF724FDB2
:102A300000BF4E480068854276D300BF4848006812
:102A4000006808B9012000E0002020B14FF0FF30FD
:102A50004649086067E042480068C068C468666824
:102A6000B54202D2414806605DE06069D4E90212D5
:102A70008A60D4E902214A60211D42688A4201D15C
:102A8000E1684160002262610168491E0160A06A3C
:102A900098B1A06AD4E907128A60D4E907214A6094
:102AA00004F1180142688A4201D1216A4160002282
:102AB000A2620168491E016000BF94F82C10012039
:102AC00088402B490968084329490860E16A01EBFD
:102AD0008101284A02EB81014868A0608268E260B7
:102AE000211D826851608160E16A01EB8101214A08
:102AF00002EB81026261E16A01EB81011D4A00E0A3
:102B000022E052F82110491CE26A02EB8202194BC2
:102B100043F822101849E06A0968C96A88428DD3CF
:102B200001278BE700E000BF13480068C06A00EB94
:102B30008000104951F82000012800D901270F48D2
:102B4000006800B1012704E00D480068401C0C49F2
:102B500008603846BDE8F081BC00002094000020E9
:102B60008400002088000020A8000020B000002081
:102B7000980000205C46002080000020A400002077
:102B8000A000002070B500240026FFF7FDFD4B4893
:102B90000068401E494908600846006800287DD149
:102BA00047480068002879D05BE04648C068C468A0
:102BB000A06AD4E907128A60D4E907214A6004F1C7
:102BC000180142688A4201D1216A41600022A26252
:102BD0000168491E01606069D4E902128A60D4E983
:102BE00002214A60211D42688A4201D1E1684160A8
:102BF000002262610168491E016094F82C100120D6
:102C000088403149096808432F490860E16A01EBAF
:102C100081012E4A02EB81014868A0608268E2606F
:102C2000211D826851608160E16A01EB8101274AC0
:102C300002EB81026261E16A01EB8101234A52F8F1
:102C40002110491CE26A02EB8202204B43F8221059
:102C50001F49E06A0968C96A884202D301201D49F8
:102C600008601848006808B9012000E0002000282A
:102C70009BD00CB1FFF700FC1748056865B100BF99
:102C8000FFF7B8FE10B10120124908606D1E002D3B
:102C9000F6D10020104908600E4800E009E0006805
:102CA00038B1012630070D490860BFF34F8FBFF3DD
:102CB0006F8FFFF77BFD304670BD0000BC00002029
:102CC00090000020E8460020980000205C4600208C
:102CD00080000020A4000020A000002004ED00E0FF
:102CE00000000000000000000102030406070809BC
:102CF0000000000001020304182D0008000000205D
:102D0000C00000007C1F0008D82D0008C000002073
:102D1000684A00008C1F000800000000000000004E
:102D2000750300080024F40000000000BD1F000827
:102D3000E518000835190008FD250008512600088F
:102D40000D260008D1030008C903000889260008E1
:102D5000E9250008ED250008F12500080000000025
:102D600000000000BD180008000000001000000076
:102D70000100000000000000000000000000000052
:102D80000000000000000000000000000000000043
:102D900000000000AAAAAAAA00000000000000008B
:102DA0000000000000000000000000000000000023
:102DB0000000000000000000000000000000000013
:102DC0000000000000000000000000000000000003
:082DD0000400000000000000F7
:040000050800018965
:00000001FF
